:100000001EC02DC02CC02BC02AC029C028C027C0AC
:1000100026C025C024C023C022C021C020C01FC0CC
:100020001EC01DC01CC01BC01AC019C018C017C0FC
:1000300016C015C014C013C012C011C010C01124C6
:100040001FBECFEFCDBFDFE3DEBF2EE3A0E0BEE3F8
:1000500001C01D92A330B207E1F75FD07DC1D0CFC0
:10006000E4E0F4E080818061808308958093240837
:100070008091230887FFFCCF809124080895FF9288
:100080000F931F93CF93DF93C82FD42F152F062FD5
:10009000F72E87FF08C040E050E0BA0187E7EFDFA6
:1000A0008230A8F5CF77DCDF8FEFE0DF80910404AA
:1000B0008F7E809304048FEFD9DF8C2F8064D6DF8E
:1000C0008F2DD4DF802FD2DF812FD0DF8D2FCEDF99
:1000D000C83411F487E801C085E9C8DF0AE010E000
:1000E0008FEFC4DFD82F87FD0AC0C03561F020F440
:1000F000C054C23058F407C0C73741F404C001509F
:10010000110971F7F2CFACDF8FEFB0DF8D2FDF91E8
:10011000CF911F910F91FF90089580E88FBF80913C
:100120000004826080930004809100048B7F8093A0
:100130000004809100048860809300048091000492
:100140008061809300048CDF809112048D60809325
:10015000120487E28093200882E080932604809135
:10016000210482608093210488E08093260480919A
:10017000210488608093210484E080932604809188
:100180002104846080932104809120048E7F8093D9
:100190002004809130048D6080933004C2E084E0BC
:1001A000F82ED8E0EE24E3948091280480FDFCCF63
:1001B000C0932604F0922604D09326042FEF89E6FC
:1001C00098E1215080409040E1F700C0000080910C
:1001D00025048260809325042FEF83ED90E3215066
:1001E00080409040E1F700C00000809125048460C9
:1001F000809325042FEF83ED90E3215080409040C1
:10020000E1F700C0000080912504886080932504F8
:100210002FEF81E19AE7215080409040E1F700C044
:100220000000C0932604D0932604F09226042FEFFA
:1002300083ED90E3215080409040E1F700C0000042
:100240001092023E0DDF0AE410E08FEF0FDF015045
:100250001109D9F700E110E040E050E0BA0180E474
:100260000EDF813091F001501109B1F78091250422
:10027000846080932504D0932604C0932604809143
:1002800025048460809325048FCF40E052E060E035
:1002900070E080E5F4DE4AEA51E060E070E088E476
:1002A000EEDE813009F440C040E050E0BA018AE758
:1002B000E6DE813019F000E21EE40CC08FEFD6DEDE
:1002C0008FEFD4DE8FEFD2DE8FEFD0DEF4CF015090
:1002D000110939F040E050E0BA0181E4D0DE81112B
:1002E000F6CF40E052E060E070E080E5C8DEE092EA
:1002F000023E8FEFBBDE40E050E0BA018DE4BFDE8E
:100300008093003E8FEFB2DE8093013E8FEFAEDE32
:100310008091013E80FD04C0809125048860B2CFA9
:10032000809125048260AECF8FEFA0DE8FEF9EDE3E
:100330008FEF9CDE8FEF9ADE00E21EE440E050E09B
:1003400060E070E489EE9BDE882319F0015011090A
:0C035000A9F7C093023ECDCFF894FFCF78
:00000001FF
