:100000001EC02DC02CC02BC02AC029C028C027C0AC
:1000100026C025C024C023C022C021C020C01FC0CC
:100020001EC01DC01CC01BC01AC019C018C017C0FC
:1000300016C015C014C013C012C011C010C01124C6
:100040001FBECFEFCDBFDFE3DEBF2EE3A0E0BEE3F8
:1000500001C01D92A130B207E1F710D092C0D0CFFD
:1000600030911404E0E2F8E0208181E090E001C0EA
:10007000880F3A95EAF7822B8083089580911404C3
:1000800020910104C1E0D0E0AE0102C0440F551F31
:100090008A95E2F7CA01822B80930104E1DF809107
:1000A00011042091130440912008BE0102C0660F84
:1000B000771F8A95E2F7CB01FE0102C0EE0FFF1F0A
:1000C0002A95E2F78E2B9F2B842B8093200880911A
:1000D00011042091130440910104BE0102C0660F77
:1000E000771F8A95E2F7CB01FE0102C0EE0FFF1FDA
:1000F0002A95E2F78E2B9F2B842B809301049091FD
:1001000012048091200801C0CC0F9A95EAF7C82B01
:10011000C0932008809124048D7F809324048091D3
:100120002004826080932004809124048B7F80933C
:10013000240480912004846080932004809124040E
:10014000877F80932404809120048860809320041A
:10015000809121048E7F80932104809130048160FE
:10016000809330048091200887628093200883E088
:10017000E3EDF0E33197F1F700C000008093003E1B
:06018000F7CFF894FFCF59
:00000001FF
