S01A000053442D53746F706C696768742D41746D656C2E7372656368
S11300001EC02DC02CC02BC02AC029C028C027C0A8
S113001026C025C024C023C022C021C020C01FC0C8
S11300201EC01DC01CC01BC01AC019C018C017C0F8
S113003016C015C014C013C012C011C010C01124C2
S11300401FBECFEFCDBFDFE3DEBF2EE3A0E0BEE3F4
S113005001C01D92A330B207E1F75FD07CC1D0CFBD
S1130060E4E0F4E080818061808308958093240833
S11300708091230887FFFCCF809124080895FF9284
S11300800F931F93CF93DF93C82FD42F152F062FD1
S1130090F72E87FF08C040E050E0BA0187E7EFDFA2
S11300A08230A8F5CF77DCDF8FEFE0DF80910404A6
S11300B08F7E809304048FEFD9DF8C2F8064D6DF8A
S11300C08F2DD4DF802FD2DF812FD0DF8D2FCEDF95
S11300D0C83411F487E801C085E9C8DF0AE010E0FC
S11300E08FEFC4DFD82F87FD0AC0C03561F020F43C
S11300F0C054C23058F407C0C73741F404C001509B
S1130100110971F7F2CFACDF8FEFB0DF8D2FDF91E4
S1130110CF911F910F91FF90089580E88FBF809138
S11301200004826080930004809100048B7F80939C
S1130130000480910004886080930004809100048E
S11301408061809300048CDF809112048D60809321
S1130150120487E28093200822E0209326048091F1
S1130160210482608093210484E08093260490918A
S1130170210494609093210498E090932604309194
S11301802104386030932104309120043E7F309361
S11301902004309130043D603093300430912504C4
S11301A0346030932504309125043860309325045D
S11301B0309125043260309325043FE946E851E04C
S11301C0315040405040E1F700C000002093260425
S11301D090932604809326043FE946E851E0315089
S11301E040405040E1F700C00000309125043460E5
S11301F030932504309125043860309325043091E0
S113020025043260309325043FE946E851E031503B
S113021040405040E1F700C0000020932604909332
S113022026048093260412E088E0F82E04E0EE24ED
S1130230E3948091280480FDFCCF10932604F0926F
S11302402604009326041092023E0ADFCAE4D0E09A
S11302508FEF0CDF2197E1F7C0E1D0E040E050E000
S1130260BA0180E40CDF813089F02197B9F78091DD
S113027025048860809325040093260410932604A3
S113028080912504886080932504D3CF40E052E018
S113029060E070E080E5F3DE4AEA51E060E070E09F
S11302A088E4EDDE813009F43FC040E050E0BA015B
S11302B08AE7E5DE813019F0C0E2DEE40BC08FEF9F
S11302C0D5DE8FEFD3DE8FEFD1DE8FEFCFDEF4CF2D
S11302D0219739F040E050E0BA0181E4D0DE811189
S11302E0F7CF40E052E060E070E080E5C8DEE092E5
S11302F0023E8FEFBBDE40E050E0BA018DE4BFDE8A
S11303008093003E8FEFB2DE8093013E8FEFAEDE2E
S11303108091013E80FD04C0809125048460B3CFA8
S1130320809125048260AFCF8FEFA0DE8FEF9EDE39
S11303308FEF9CDE8FEF9ADEC0E2DEE440E050E017
S113034060E070E489EE9BDE882311F02197B1F719
S10D03501093023ECECFF894FFCFC5
S9030000FC
