:100000001EC02DC02CC02BC02AC029C028C027C0AC
:1000100026C025C024C023C022C021C020C01FC0CC
:100020001EC01DC01CC01BC01AC019C018C017C0FC
:1000300016C015C014C013C012C011C010C01124C6
:100040001FBECFEFCDBFDFE3DEBF2EE3A0E0BEE3F8
:1000500001C01D92A030B207E1F702D091C0D0CF0D
:10006000CF92DF92EF92FF921F93CF93DF93E4E161
:10007000F4E02081A1E0B4E04C9181E090E07C01CB
:1000800002C0EE0CFF1C2A95E2F79701242B2C935B
:100090002081E0E2F8E04081BC0102C0660F771FDA
:1000A0002A95E2F79B01242B208361E174E0EB01A8
:1000B00028810F2EF3E1CF2EF4E0DF2EF02DE601A4
:1000C000488110817C0102C0EE0CFF1C2A95E2F7EA
:1000D0009701EC0102C0CC0FDD1F4A95E2F72C2BF3
:1000E0003D2B212B2083EB012881E60148816C9177
:1000F0007C0102C0EE0CFF1C2A95E2F79701EC018F
:1001000002C0CC0FDD1F4A95E2F72C2B3D2B262B8E
:100110002C9330911204208102C0880F991F3A95C8
:10012000E2F7822B8083C4E2D4E088818D7F8883CC
:10013000A0E2B4E08C9182608C9388818B7F88836D
:100140008C9184608C938881877F88838C91886070
:100150008C93A1E2B4E08C918E7F8C93A0E3B4E009
:100160008C9181608C9380818762808380E090E0B5
:10017000DF91CF911F91FF90EF90DF90CF90089586
:04018000F894FFCF21
:00000001FF
