S014000053442D53746F706C696768742E737265638E
S11300001EC02DC02CC02BC02AC029C028C027C0A8
S113001026C025C024C023C022C021C020C01FC0C8
S11300201EC01DC01CC01BC01AC019C018C017C0F8
S113003016C015C014C013C012C011C010C01124C2
S11300401FBECFEFCDBFDFE3DEBF2EE3A0E0BEE3F4
S113005001C01D92A330B207E1F75FD07BC1D0CFBE
S1130060E4E0F4E080818061808308958093240833
S1130070E3E2F8E080818823ECF780912408089576
S1130080FF920F931F93CF93DF93082FC42FD52F85
S1130090162FF72E882344F440E050E0BA0187E796
S11300A0EFDF8230A0F50F77DBDF8FEFDFDFE4E0F7
S11300B0F4E080818F7E80838FEFD8DF802F80648F
S11300C0D5DF8F2DD3DF812FD1DF8D2FCFDF8C2F85
S11300D0CDDF083411F487E801C085E9C7DFCAE041
S11300E0D0E08FEFC3DF182F882314F42197C9F7CA
S11300F0003549F020F40054023040F404C00737BE
S113010011F0093E19F4ACDF8FEFB0DF812FDF91DE
S1130110CF911F910F91FF90089580E88FBFE0E089
S1130120F4E080818260808380818B7F8083808102
S11301308860808380818061808392DFE2E1F4E0E3
S113014080818D60808387E280932008A6E2B4E0FA
S113015082E08C93E1E2F4E080818260808388E035
S11301608C9380818860808384E08C938081846018
S11301708083E0E2F4E080818E7F8083E0E3F4E03A
S113018080818D60808308E214E00F2EF6E2CF2E8A
S1130190F4E0DF2EF02D6894662461F8862C6894D0
S11301A0772472F86894992493F80F2EF5E2EF2ED1
S11301B0F4E0FF2EF02D0F2EF0E0AF2EFEE3BF2E65
S11301C0F02D55245394F801808180FDFCCFF60175
S11301D0808270829082FFE926E881E0F15020401D
S11301E08040E1F700C00000F701808182608083D5
S11301F0FFE32DE083E0F15020408040E1F700C0B0
S11302000000F701808184608083FFE32DE083E0B8
S1130210F15020408040E1F700C00000F7018081E8
S113022088608083FFE121EA87E0F150204080402C
S1130230E1F700C00000F601808290827082109283
S1130240023E0EDFCAE4D0E08FEF10DF2197E1F722
S1130250C0E1D0E040E050E0BA0180E411DF813039
S113026009F45BC02197B1F74CC040E050E060E076
S113027070E489EE05DF882311F02197B1F78092AD
S1130280023E22C040E050E0BA018AE7F9DE813044
S113029009F05DC08FEFEADE8FEFE8DE8FEFE6DE78
S11302A08FEFE4DE54C040E050E0BA0181E4E8DEC0
S11302B0882311F02197B9F740E052E060E070E044
S11302C080E5DEDE5092023E8FEFD0DE40E050E06B
S11302D0BA018DE4D5DEF50180838FEFC7DEF50129
S11302E081838FEFC3DEF501818180FD05C0F701B5
S11302F080818860808367CFF701808182608083FA
S113030062CFF701808184608083F60190826082ED
S1130310F70180818460808356CF40E052E060E042
S113032070E080E5ADDE4AEA51E060E070E088E428
S1130330A7DE813009F0A6CF8FEF98DE8FEF96DE2F
S11303408FEF94DE8FEF92DEC0E2DEE48ECFC0E268
S10B0350DEE4A9CFF894FFCF0D
S9030000FC
